{
  "contractName": "TokenSale",
  "abi": [
    {
      "inputs": [
        {
          "internalType": "address",
          "name": "_token",
          "type": "address"
        }
      ],
      "stateMutability": "nonpayable",
      "type": "constructor"
    },
    {
      "anonymous": false,
      "inputs": [
        {
          "indexed": true,
          "internalType": "address",
          "name": "previousOwner",
          "type": "address"
        },
        {
          "indexed": true,
          "internalType": "address",
          "name": "newOwner",
          "type": "address"
        }
      ],
      "name": "OwnershipTransferred",
      "type": "event"
    },
    {
      "anonymous": false,
      "inputs": [
        {
          "indexed": false,
          "internalType": "address",
          "name": "_from",
          "type": "address"
        },
        {
          "indexed": false,
          "internalType": "address",
          "name": "_to",
          "type": "address"
        },
        {
          "indexed": false,
          "internalType": "uint256",
          "name": "_amount",
          "type": "uint256"
        }
      ],
      "name": "PurchaseToken",
      "type": "event"
    },
    {
      "stateMutability": "payable",
      "type": "fallback"
    },
    {
      "inputs": [],
      "name": "activeRound",
      "outputs": [
        {
          "internalType": "uint256",
          "name": "",
          "type": "uint256"
        }
      ],
      "stateMutability": "view",
      "type": "function"
    },
    {
      "inputs": [],
      "name": "owner",
      "outputs": [
        {
          "internalType": "address",
          "name": "",
          "type": "address"
        }
      ],
      "stateMutability": "view",
      "type": "function"
    },
    {
      "inputs": [],
      "name": "renounceOwnership",
      "outputs": [],
      "stateMutability": "nonpayable",
      "type": "function"
    },
    {
      "inputs": [
        {
          "internalType": "uint256",
          "name": "",
          "type": "uint256"
        }
      ],
      "name": "rounds",
      "outputs": [
        {
          "internalType": "uint256",
          "name": "index",
          "type": "uint256"
        },
        {
          "internalType": "uint256",
          "name": "tokenPriceInWei",
          "type": "uint256"
        },
        {
          "internalType": "uint256",
          "name": "quantityToken",
          "type": "uint256"
        },
        {
          "internalType": "uint256",
          "name": "quantityBuyer",
          "type": "uint256"
        },
        {
          "internalType": "uint256",
          "name": "startDate",
          "type": "uint256"
        },
        {
          "internalType": "uint256",
          "name": "endDate",
          "type": "uint256"
        },
        {
          "internalType": "uint256",
          "name": "quantitySold",
          "type": "uint256"
        }
      ],
      "stateMutability": "view",
      "type": "function"
    },
    {
      "inputs": [
        {
          "internalType": "address",
          "name": "newOwner",
          "type": "address"
        }
      ],
      "name": "transferOwnership",
      "outputs": [],
      "stateMutability": "nonpayable",
      "type": "function"
    },
    {
      "stateMutability": "payable",
      "type": "receive"
    },
    {
      "inputs": [
        {
          "internalType": "uint256",
          "name": "_tokenPriceInWei",
          "type": "uint256"
        },
        {
          "internalType": "uint256",
          "name": "_quantityToken",
          "type": "uint256"
        },
        {
          "internalType": "uint256",
          "name": "_quantityBuyer",
          "type": "uint256"
        },
        {
          "internalType": "uint256",
          "name": "_startDate",
          "type": "uint256"
        },
        {
          "internalType": "uint256",
          "name": "_endDate",
          "type": "uint256"
        }
      ],
      "name": "createRound",
      "outputs": [],
      "stateMutability": "nonpayable",
      "type": "function"
    },
    {
      "inputs": [
        {
          "internalType": "uint256",
          "name": "_index",
          "type": "uint256"
        }
      ],
      "name": "setRoundActive",
      "outputs": [],
      "stateMutability": "nonpayable",
      "type": "function"
    },
    {
      "inputs": [],
      "name": "getQuantityTokenRemain",
      "outputs": [
        {
          "internalType": "uint256",
          "name": "",
          "type": "uint256"
        }
      ],
      "stateMutability": "view",
      "type": "function"
    },
    {
      "inputs": [],
      "name": "purchase",
      "outputs": [],
      "stateMutability": "payable",
      "type": "function"
    },
    {
      "inputs": [
        {
          "internalType": "address payable",
          "name": "_to",
          "type": "address"
        },
        {
          "internalType": "uint256",
          "name": "_amount",
          "type": "uint256"
        }
      ],
      "name": "withdrawMoney",
      "outputs": [],
      "stateMutability": "nonpayable",
      "type": "function"
    },
    {
      "inputs": [
        {
          "internalType": "address payable",
          "name": "_to",
          "type": "address"
        }
      ],
      "name": "withdrawAllMoney",
      "outputs": [],
      "stateMutability": "nonpayable",
      "type": "function"
    }
  ],
  "bytecode": "0x60806040523480156200001157600080fd5b50604051620015d0380380620015d08339818101604052810190620000379190620001d5565b620000576200004b6200009f60201b60201c565b620000a760201b60201c565b80600260006101000a81548173ffffffffffffffffffffffffffffffffffffffff021916908373ffffffffffffffffffffffffffffffffffffffff1602179055505062000207565b600033905090565b60008060009054906101000a900473ffffffffffffffffffffffffffffffffffffffff169050816000806101000a81548173ffffffffffffffffffffffffffffffffffffffff021916908373ffffffffffffffffffffffffffffffffffffffff1602179055508173ffffffffffffffffffffffffffffffffffffffff168173ffffffffffffffffffffffffffffffffffffffff167f8be0079c531659141344cd1fd0a4f28419497f9722a3daafe3b4186f6b6457e060405160405180910390a35050565b600080fd5b600073ffffffffffffffffffffffffffffffffffffffff82169050919050565b60006200019d8262000170565b9050919050565b620001af8162000190565b8114620001bb57600080fd5b50565b600081519050620001cf81620001a4565b92915050565b600060208284031215620001ee57620001ed6200016b565b5b6000620001fe84828501620001be565b91505092915050565b6113b980620002176000396000f3fe6080604052600436106100a05760003560e01c806364edfbf01161006457806364edfbf0146101aa578063715018a6146101b45780638c65c81f146101cb5780638da5cb5b1461020e578063f274c89714610239578063f2fde38b14610262576100bf565b80630adec93c146100d957806311f0281e146101025780634c4c5cf01461012d5780635af6df4c146101565780635d0c534b1461017f576100bf565b366100bf5734600560008282546100b79190610b55565b925050819055005b34600560008282546100d19190610b55565b925050819055005b3480156100e557600080fd5b5061010060048036038101906100fb9190610bec565b61028b565b005b34801561010e57600080fd5b506101176102df565b6040516101249190610c28565b60405180910390f35b34801561013957600080fd5b50610154600480360381019061014f9190610c6f565b6102e5565b005b34801561016257600080fd5b5061017d60048036038101906101789190610c9c565b610350565b005b34801561018b57600080fd5b50610194610411565b6040516101a19190610c28565b60405180910390f35b6101b2610496565b005b3480156101c057600080fd5b506101c9610766565b005b3480156101d757600080fd5b506101f260048036038101906101ed9190610c6f565b61077a565b6040516102059796959493929190610d17565b60405180910390f35b34801561021a57600080fd5b506102236107bc565b6040516102309190610da7565b60405180910390f35b34801561024557600080fd5b50610260600480360381019061025b9190610dc2565b6107e5565b005b34801561026e57600080fd5b5061028960048036038101906102849190610e2e565b61088e565b005b60006005819055508073ffffffffffffffffffffffffffffffffffffffff166108fc6005549081150290604051600060405180830381858888f193505050501580156102db573d6000803e3d6000fd5b5050565b60045481565b6102ed610911565b6000600160008381526020019081526020016000206000015411610346576040517f08c379a000000000000000000000000000000000000000000000000000000000815260040161033d90610eb8565b60405180910390fd5b8060048190555050565b610358610911565b6003600081548092919061036b90610ed8565b919050555060006040518060e0016040528060035481526020018781526020018681526020018581526020018481526020018381526020016000815250905080600160006003548152602001908152602001600020600082015181600001556020820151816001015560408201518160020155606082015181600301556080820151816004015560a0820151816005015560c08201518160060155905050505050505050565b6000806001600060045481526020019081526020016000206040518060e001604052908160008201548152602001600182015481526020016002820154815260200160038201548152602001600482015481526020016005820154815260200160068201548152505090508060c0015181604001516104909190610f20565b91505090565b60006001600060045481526020019081526020016000206040518060e0016040529081600082015481526020016001820154815260200160028201548152602001600382015481526020016004820154815260200160058201548152602001600682015481525050905060004290508082608001511115801561051d5750808260a0015111155b61055c576040517f08c379a000000000000000000000000000000000000000000000000000000000815260040161055390610fa0565b60405180910390fd5b81602001513410156105a3576040517f08c379a000000000000000000000000000000000000000000000000000000000815260040161059a9061100c565b60405180910390fd5b60008260200151346105b5919061105b565b905060008360200151826105c9919061108c565b346105d49190610f20565b905060006105e06107bc565b90506106216040518060400160405280600881526020017f676f7420686572650000000000000000000000000000000000000000000000008152508261098f565b600260009054906101000a900473ffffffffffffffffffffffffffffffffffffffff1673ffffffffffffffffffffffffffffffffffffffff166323b872dd8233866040518463ffffffff1660e01b8152600401610680939291906110ce565b6020604051808303816000875af115801561069f573d6000803e3d6000fd5b505050506040513d601f19601f820116820180604052508101906106c3919061113d565b503373ffffffffffffffffffffffffffffffffffffffff166108fc839081150290604051600060405180830381858888f1935050505015801561070a573d6000803e3d6000fd5b507f9c074d60bddab87a399292ec05f14cbea09e72ff6564ab6d17c0e0af5d7e735981333460405161073e939291906110ce565b60405180910390a182600560008282546107589190610b55565b925050819055505050505050565b61076e610911565b6107786000610a2b565b565b60016020528060005260406000206000915090508060000154908060010154908060020154908060030154908060040154908060050154908060060154905087565b60008060009054906101000a900473ffffffffffffffffffffffffffffffffffffffff16905090565b60055481111561082a576040517f08c379a0000000000000000000000000000000000000000000000000000000008152600401610821906111b6565b60405180910390fd5b806005600082825461083c9190610f20565b925050819055508173ffffffffffffffffffffffffffffffffffffffff166108fc829081150290604051600060405180830381858888f19350505050158015610889573d6000803e3d6000fd5b505050565b610896610911565b600073ffffffffffffffffffffffffffffffffffffffff168173ffffffffffffffffffffffffffffffffffffffff1603610905576040517f08c379a00000000000000000000000000000000000000000000000000000000081526004016108fc90611248565b60405180910390fd5b61090e81610a2b565b50565b610919610aef565b73ffffffffffffffffffffffffffffffffffffffff166109376107bc565b73ffffffffffffffffffffffffffffffffffffffff161461098d576040517f08c379a0000000000000000000000000000000000000000000000000000000008152600401610984906112b4565b60405180910390fd5b565b610a2782826040516024016109a5929190611353565b6040516020818303038152906040527f319af333000000000000000000000000000000000000000000000000000000007bffffffffffffffffffffffffffffffffffffffffffffffffffffffff19166020820180517bffffffffffffffffffffffffffffffffffffffffffffffffffffffff8381831617835250505050610af7565b5050565b60008060009054906101000a900473ffffffffffffffffffffffffffffffffffffffff169050816000806101000a81548173ffffffffffffffffffffffffffffffffffffffff021916908373ffffffffffffffffffffffffffffffffffffffff1602179055508173ffffffffffffffffffffffffffffffffffffffff168173ffffffffffffffffffffffffffffffffffffffff167f8be0079c531659141344cd1fd0a4f28419497f9722a3daafe3b4186f6b6457e060405160405180910390a35050565b600033905090565b60006a636f6e736f6c652e6c6f6790508151602083016000808383865afa5050505050565b6000819050919050565b7f4e487b7100000000000000000000000000000000000000000000000000000000600052601160045260246000fd5b6000610b6082610b1c565b9150610b6b83610b1c565b9250828201905080821115610b8357610b82610b26565b5b92915050565b600080fd5b600073ffffffffffffffffffffffffffffffffffffffff82169050919050565b6000610bb982610b8e565b9050919050565b610bc981610bae565b8114610bd457600080fd5b50565b600081359050610be681610bc0565b92915050565b600060208284031215610c0257610c01610b89565b5b6000610c1084828501610bd7565b91505092915050565b610c2281610b1c565b82525050565b6000602082019050610c3d6000830184610c19565b92915050565b610c4c81610b1c565b8114610c5757600080fd5b50565b600081359050610c6981610c43565b92915050565b600060208284031215610c8557610c84610b89565b5b6000610c9384828501610c5a565b91505092915050565b600080600080600060a08688031215610cb857610cb7610b89565b5b6000610cc688828901610c5a565b9550506020610cd788828901610c5a565b9450506040610ce888828901610c5a565b9350506060610cf988828901610c5a565b9250506080610d0a88828901610c5a565b9150509295509295909350565b600060e082019050610d2c600083018a610c19565b610d396020830189610c19565b610d466040830188610c19565b610d536060830187610c19565b610d606080830186610c19565b610d6d60a0830185610c19565b610d7a60c0830184610c19565b98975050505050505050565b6000610d9182610b8e565b9050919050565b610da181610d86565b82525050565b6000602082019050610dbc6000830184610d98565b92915050565b60008060408385031215610dd957610dd8610b89565b5b6000610de785828601610bd7565b9250506020610df885828601610c5a565b9150509250929050565b610e0b81610d86565b8114610e1657600080fd5b50565b600081359050610e2881610e02565b92915050565b600060208284031215610e4457610e43610b89565b5b6000610e5284828501610e19565b91505092915050565b600082825260208201905092915050565b7f526f756e64206e6f742065786973747300000000000000000000000000000000600082015250565b6000610ea2601083610e5b565b9150610ead82610e6c565b602082019050919050565b60006020820190508181036000830152610ed181610e95565b9050919050565b6000610ee382610b1c565b91507fffffffffffffffffffffffffffffffffffffffffffffffffffffffffffffffff8203610f1557610f14610b26565b5b600182019050919050565b6000610f2b82610b1c565b9150610f3683610b1c565b9250828203905081811115610f4e57610f4d610b26565b5b92915050565b7f546f6b656e206e6f74206f70656e20666f722073616c65207965740000000000600082015250565b6000610f8a601b83610e5b565b9150610f9582610f54565b602082019050919050565b60006020820190508181036000830152610fb981610f7d565b9050919050565b7f4e6f7420656e6f756768206d6f6e65792073656e740000000000000000000000600082015250565b6000610ff6601583610e5b565b915061100182610fc0565b602082019050919050565b6000602082019050818103600083015261102581610fe9565b9050919050565b7f4e487b7100000000000000000000000000000000000000000000000000000000600052601260045260246000fd5b600061106682610b1c565b915061107183610b1c565b9250826110815761108061102c565b5b828204905092915050565b600061109782610b1c565b91506110a283610b1c565b92508282026110b081610b1c565b915082820484148315176110c7576110c6610b26565b5b5092915050565b60006060820190506110e36000830186610d98565b6110f06020830185610d98565b6110fd6040830184610c19565b949350505050565b60008115159050919050565b61111a81611105565b811461112557600080fd5b50565b60008151905061113781611111565b92915050565b60006020828403121561115357611152610b89565b5b600061116184828501611128565b91505092915050565b7f6e6f7420656e6f7567682066756e647300000000000000000000000000000000600082015250565b60006111a0601083610e5b565b91506111ab8261116a565b602082019050919050565b600060208201905081810360008301526111cf81611193565b9050919050565b7f4f776e61626c653a206e6577206f776e657220697320746865207a65726f206160008201527f6464726573730000000000000000000000000000000000000000000000000000602082015250565b6000611232602683610e5b565b915061123d826111d6565b604082019050919050565b6000602082019050818103600083015261126181611225565b9050919050565b7f4f776e61626c653a2063616c6c6572206973206e6f7420746865206f776e6572600082015250565b600061129e602083610e5b565b91506112a982611268565b602082019050919050565b600060208201905081810360008301526112cd81611291565b9050919050565b600081519050919050565b60005b838110156112fd5780820151818401526020810190506112e2565b60008484015250505050565b6000601f19601f8301169050919050565b6000611325826112d4565b61132f8185610e5b565b935061133f8185602086016112df565b61134881611309565b840191505092915050565b6000604082019050818103600083015261136d818561131a565b905061137c6020830184610d98565b939250505056fea2646970667358221220d3b8038213372dc2dc3136a9ebbc072980208512bf43021610ba0a63228475be64736f6c63430008110033",
  "immutableReferences": {},
  "source": "//SPDX-License-Identifier: MIT\npragma solidity ^0.8.16;\n\nimport \"@openzeppelin/contracts/access/Ownable.sol\";\n\nimport \"@ganache/console.log/console.sol\";\n\nabstract contract IERC20 {\n    function transferFrom(\n        address _from,\n        address to,\n        uint256 amount\n    ) public virtual returns (bool);\n}\n\ncontract TokenSale is Ownable {\n    mapping(uint256 => Round) public rounds;\n    IERC20 token;\n    uint256 index;\n    uint256 public activeRound;\n    uint256 balanceReceived;\n\n    struct Round {\n        uint256 index;\n        uint256 tokenPriceInWei;\n        uint256 quantityToken;\n        uint256 quantityBuyer;\n        uint256 startDate;\n        uint256 endDate;\n        uint256 quantitySold;\n    }\n\n    constructor(address _token) {\n        token = IERC20(_token);\n    }\n\n    function createRound(\n        uint256 _tokenPriceInWei,\n        uint256 _quantityToken,\n        uint256 _quantityBuyer,\n        uint256 _startDate,\n        uint256 _endDate\n    ) public onlyOwner {\n        index++;\n        Round memory round = Round({\n            index: index,\n            tokenPriceInWei: _tokenPriceInWei,\n            quantityToken: _quantityToken,\n            quantityBuyer: _quantityBuyer,\n            startDate: _startDate,\n            endDate: _endDate,\n            quantitySold: 0\n        });\n        rounds[index] = round;\n    }\n\n    function setRoundActive(uint256 _index) public onlyOwner {\n        require(rounds[_index].index > 0, \"Round not exists\");\n        activeRound = _index;\n    }\n\n    function getQuantityTokenRemain() public view returns (uint256) {\n        Round memory round = rounds[activeRound];\n        return round.quantityToken - round.quantitySold;\n    }\n\n    event PurchaseToken(address _from, address _to, uint256 _amount);\n\n    function purchase() public payable {\n        Round memory round = rounds[activeRound];\n        uint256 current = uint256(block.timestamp);\n        require(\n            round.startDate <= current && round.endDate <= current,\n            \"Token not open for sale yet\"\n        );\n        require(msg.value >= round.tokenPriceInWei, \"Not enough money sent\");\n        uint256 tokensToTransfer = msg.value / round.tokenPriceInWei;\n        uint256 remainder = msg.value -\n            tokensToTransfer *\n            round.tokenPriceInWei;\n        address owner = owner();\n        console.log(\"got here\", owner);\n        token.transferFrom(owner, msg.sender, tokensToTransfer);\n        payable(msg.sender).transfer(remainder);\n        emit PurchaseToken(owner, msg.sender, msg.value);\n        balanceReceived += tokensToTransfer;\n    }\n\n    fallback() external payable {\n        balanceReceived += msg.value;\n    }\n\n    receive() external payable {\n        balanceReceived += msg.value;\n    }\n\n    function withdrawMoney(address payable _to, uint256 _amount) public {\n        require(_amount <= balanceReceived, \"not enough funds\");\n        balanceReceived -= _amount;\n        _to.transfer(_amount);\n    }\n\n    function withdrawAllMoney(address payable _to) public {\n        balanceReceived = 0;\n        _to.transfer(balanceReceived);\n    }\n}\n",
  "sourcePath": "/Users/Dondd/Projects/Research/ethereum/sauron-token/contracts/TokenSale.sol",
  "compiler": {
    "name": "solc",
    "version": "0.8.17+commit.8df45f5f.Emscripten.clang"
  },
  "schemaVersion": "3.4.11",
  "updatedAt": "2022-12-14T16:25:27.786Z",
  "devdoc": {
    "kind": "dev",
    "methods": {
      "owner()": {
        "details": "Returns the address of the current owner."
      },
      "renounceOwnership()": {
        "details": "Leaves the contract without owner. It will not be possible to call `onlyOwner` functions anymore. Can only be called by the current owner. NOTE: Renouncing ownership will leave the contract without an owner, thereby removing any functionality that is only available to the owner."
      },
      "transferOwnership(address)": {
        "details": "Transfers ownership of the contract to a new account (`newOwner`). Can only be called by the current owner."
      }
    },
    "version": 1
  },
  "userdoc": {
    "kind": "user",
    "methods": {},
    "version": 1
  }
}