{
  "contractName": "TokenSale",
  "abi": [
    {
      "inputs": [
        {
          "internalType": "address",
          "name": "_token",
          "type": "address"
        }
      ],
      "stateMutability": "nonpayable",
      "type": "constructor"
    },
    {
      "anonymous": false,
      "inputs": [
        {
          "indexed": true,
          "internalType": "address",
          "name": "previousOwner",
          "type": "address"
        },
        {
          "indexed": true,
          "internalType": "address",
          "name": "newOwner",
          "type": "address"
        }
      ],
      "name": "OwnershipTransferred",
      "type": "event"
    },
    {
      "anonymous": false,
      "inputs": [
        {
          "indexed": false,
          "internalType": "address",
          "name": "_to",
          "type": "address"
        },
        {
          "indexed": false,
          "internalType": "uint256",
          "name": "_amount",
          "type": "uint256"
        },
        {
          "indexed": false,
          "internalType": "uint256",
          "name": "_tokenPriceInWei",
          "type": "uint256"
        },
        {
          "indexed": false,
          "internalType": "uint256",
          "name": "_timestamp",
          "type": "uint256"
        }
      ],
      "name": "PurchaseToken",
      "type": "event"
    },
    {
      "stateMutability": "payable",
      "type": "fallback"
    },
    {
      "inputs": [],
      "name": "activeRound",
      "outputs": [
        {
          "internalType": "uint256",
          "name": "",
          "type": "uint256"
        }
      ],
      "stateMutability": "view",
      "type": "function"
    },
    {
      "inputs": [],
      "name": "owner",
      "outputs": [
        {
          "internalType": "address",
          "name": "",
          "type": "address"
        }
      ],
      "stateMutability": "view",
      "type": "function"
    },
    {
      "inputs": [],
      "name": "renounceOwnership",
      "outputs": [],
      "stateMutability": "nonpayable",
      "type": "function"
    },
    {
      "inputs": [
        {
          "internalType": "uint256",
          "name": "",
          "type": "uint256"
        }
      ],
      "name": "rounds",
      "outputs": [
        {
          "internalType": "uint256",
          "name": "index",
          "type": "uint256"
        },
        {
          "internalType": "uint256",
          "name": "tokenPriceInWei",
          "type": "uint256"
        },
        {
          "internalType": "uint256",
          "name": "quantityToken",
          "type": "uint256"
        },
        {
          "internalType": "uint256",
          "name": "quantityBuyer",
          "type": "uint256"
        },
        {
          "internalType": "uint256",
          "name": "startDate",
          "type": "uint256"
        },
        {
          "internalType": "uint256",
          "name": "endDate",
          "type": "uint256"
        },
        {
          "internalType": "uint256",
          "name": "quantitySold",
          "type": "uint256"
        }
      ],
      "stateMutability": "view",
      "type": "function"
    },
    {
      "inputs": [
        {
          "internalType": "address",
          "name": "newOwner",
          "type": "address"
        }
      ],
      "name": "transferOwnership",
      "outputs": [],
      "stateMutability": "nonpayable",
      "type": "function"
    },
    {
      "stateMutability": "payable",
      "type": "receive"
    },
    {
      "inputs": [
        {
          "internalType": "uint256",
          "name": "_tokenPriceInWei",
          "type": "uint256"
        },
        {
          "internalType": "uint256",
          "name": "_quantityToken",
          "type": "uint256"
        },
        {
          "internalType": "uint256",
          "name": "_quantityBuyer",
          "type": "uint256"
        },
        {
          "internalType": "uint256",
          "name": "_startDate",
          "type": "uint256"
        },
        {
          "internalType": "uint256",
          "name": "_endDate",
          "type": "uint256"
        }
      ],
      "name": "createRound",
      "outputs": [],
      "stateMutability": "nonpayable",
      "type": "function"
    },
    {
      "inputs": [
        {
          "internalType": "uint256",
          "name": "_index",
          "type": "uint256"
        }
      ],
      "name": "setRoundActive",
      "outputs": [],
      "stateMutability": "nonpayable",
      "type": "function"
    },
    {
      "inputs": [],
      "name": "getQuantityTokenRemain",
      "outputs": [
        {
          "internalType": "uint256",
          "name": "",
          "type": "uint256"
        }
      ],
      "stateMutability": "view",
      "type": "function"
    },
    {
      "inputs": [],
      "name": "purchase",
      "outputs": [],
      "stateMutability": "payable",
      "type": "function"
    },
    {
      "inputs": [
        {
          "internalType": "address payable",
          "name": "_to",
          "type": "address"
        },
        {
          "internalType": "uint256",
          "name": "_amount",
          "type": "uint256"
        }
      ],
      "name": "withdrawMoney",
      "outputs": [],
      "stateMutability": "nonpayable",
      "type": "function"
    },
    {
      "inputs": [
        {
          "internalType": "address payable",
          "name": "_to",
          "type": "address"
        }
      ],
      "name": "withdrawAllMoney",
      "outputs": [],
      "stateMutability": "nonpayable",
      "type": "function"
    }
  ],
  "bytecode": "0x60806040523480156200001157600080fd5b506040516200152638038062001526833981810160405281019062000037919062000216565b620000576200004b620000e060201b60201c565b620000e860201b60201c565b80600260006101000a81548173ffffffffffffffffffffffffffffffffffffffff021916908373ffffffffffffffffffffffffffffffffffffffff16021790555033600560006101000a81548173ffffffffffffffffffffffffffffffffffffffff021916908373ffffffffffffffffffffffffffffffffffffffff1602179055505062000248565b600033905090565b60008060009054906101000a900473ffffffffffffffffffffffffffffffffffffffff169050816000806101000a81548173ffffffffffffffffffffffffffffffffffffffff021916908373ffffffffffffffffffffffffffffffffffffffff1602179055508173ffffffffffffffffffffffffffffffffffffffff168173ffffffffffffffffffffffffffffffffffffffff167f8be0079c531659141344cd1fd0a4f28419497f9722a3daafe3b4186f6b6457e060405160405180910390a35050565b600080fd5b600073ffffffffffffffffffffffffffffffffffffffff82169050919050565b6000620001de82620001b1565b9050919050565b620001f081620001d1565b8114620001fc57600080fd5b50565b6000815190506200021081620001e5565b92915050565b6000602082840312156200022f576200022e620001ac565b5b60006200023f84828501620001ff565b91505092915050565b6112ce80620002586000396000f3fe6080604052600436106100a05760003560e01c806364edfbf01161006457806364edfbf014610206578063715018a6146102105780638c65c81f146102275780638da5cb5b1461026a578063f274c89714610295578063f2fde38b146102be576100ed565b80630adec93c1461013557806311f0281e1461015e5780634c4c5cf0146101895780635af6df4c146101b25780635d0c534b146101db576100ed565b366100ed573073ffffffffffffffffffffffffffffffffffffffff166108fc349081150290604051600060405180830381858888f193505050501580156100eb573d6000803e3d6000fd5b005b3073ffffffffffffffffffffffffffffffffffffffff166108fc349081150290604051600060405180830381858888f19350505050158015610133573d6000803e3d6000fd5b005b34801561014157600080fd5b5061015c60048036038101906101579190610b32565b6102e7565b005b34801561016a57600080fd5b50610173610339565b6040516101809190610b78565b60405180910390f35b34801561019557600080fd5b506101b060048036038101906101ab9190610bbf565b61033f565b005b3480156101be57600080fd5b506101d960048036038101906101d49190610bec565b6103aa565b005b3480156101e757600080fd5b506101f061046b565b6040516101fd9190610b78565b60405180910390f35b61020e6104f0565b005b34801561021c57600080fd5b506102256107d9565b005b34801561023357600080fd5b5061024e60048036038101906102499190610bbf565b6107ed565b6040516102619796959493929190610c67565b60405180910390f35b34801561027657600080fd5b5061027f61082f565b60405161028c9190610cf7565b60405180910390f35b3480156102a157600080fd5b506102bc60048036038101906102b79190610d12565b610858565b005b3480156102ca57600080fd5b506102e560048036038101906102e09190610d7e565b610902565b005b6102ef610985565b8073ffffffffffffffffffffffffffffffffffffffff166108fc479081150290604051600060405180830381858888f19350505050158015610335573d6000803e3d6000fd5b5050565b60045481565b610347610985565b60006001600083815260200190815260200160002060000154116103a0576040517f08c379a000000000000000000000000000000000000000000000000000000000815260040161039790610e08565b60405180910390fd5b8060048190555050565b6103b2610985565b600360008154809291906103c590610e57565b919050555060006040518060e0016040528060035481526020018781526020018681526020018581526020018481526020018381526020016000815250905080600160006003548152602001908152602001600020600082015181600001556020820151816001015560408201518160020155606082015181600301556080820151816004015560a0820151816005015560c08201518160060155905050505050505050565b6000806001600060045481526020019081526020016000206040518060e001604052908160008201548152602001600182015481526020016002820154815260200160038201548152602001600482015481526020016005820154815260200160068201548152505090508060c0015181604001516104ea9190610e9f565b91505090565b60006001600060045481526020019081526020016000206040518060e001604052908160008201548152602001600182015481526020016002820154815260200160038201548152602001600482015481526020016005820154815260200160068201548152505090506000429050808260800151111580156105775750808260a0015110155b6105b6576040517f08c379a00000000000000000000000000000000000000000000000000000000081526004016105ad90610f1f565b60405180910390fd5b81602001513410156105fd576040517f08c379a00000000000000000000000000000000000000000000000000000000081526004016105f490610f8b565b60405180910390fd5b600082602001513461060f9190610fda565b90506000836020015182610623919061100b565b3461062e9190610e9f565b9050600260009054906101000a900473ffffffffffffffffffffffffffffffffffffffff1673ffffffffffffffffffffffffffffffffffffffff166323b872dd600560009054906101000a900473ffffffffffffffffffffffffffffffffffffffff1633856040518463ffffffff1660e01b81526004016106b19392919061104d565b6020604051808303816000875af11580156106d0573d6000803e3d6000fd5b505050506040513d601f19601f820116820180604052508101906106f491906110bc565b503373ffffffffffffffffffffffffffffffffffffffff166108fc829081150290604051600060405180830381858888f1935050505015801561073b573d6000803e3d6000fd5b507fd8e3130f39b9999952a631340d17b562e2e9b3e941e5c1d9bd1c73af36c5e1d4333486602001514260405161077594939291906110e9565b60405180910390a13073ffffffffffffffffffffffffffffffffffffffff166108fc8560200151846107a7919061100b565b9081150290604051600060405180830381858888f193505050501580156107d2573d6000803e3d6000fd5b5050505050565b6107e1610985565b6107eb6000610a03565b565b60016020528060005260406000206000915090508060000154908060010154908060020154908060030154908060040154908060050154908060060154905087565b60008060009054906101000a900473ffffffffffffffffffffffffffffffffffffffff16905090565b610860610985565b6000479050808211156108a8576040517f08c379a000000000000000000000000000000000000000000000000000000000815260040161089f9061117a565b60405180910390fd5b81816108b49190610e9f565b90508273ffffffffffffffffffffffffffffffffffffffff166108fc839081150290604051600060405180830381858888f193505050501580156108fc573d6000803e3d6000fd5b50505050565b61090a610985565b600073ffffffffffffffffffffffffffffffffffffffff168173ffffffffffffffffffffffffffffffffffffffff1603610979576040517f08c379a00000000000000000000000000000000000000000000000000000000081526004016109709061120c565b60405180910390fd5b61098281610a03565b50565b61098d610ac7565b73ffffffffffffffffffffffffffffffffffffffff166109ab61082f565b73ffffffffffffffffffffffffffffffffffffffff1614610a01576040517f08c379a00000000000000000000000000000000000000000000000000000000081526004016109f890611278565b60405180910390fd5b565b60008060009054906101000a900473ffffffffffffffffffffffffffffffffffffffff169050816000806101000a81548173ffffffffffffffffffffffffffffffffffffffff021916908373ffffffffffffffffffffffffffffffffffffffff1602179055508173ffffffffffffffffffffffffffffffffffffffff168173ffffffffffffffffffffffffffffffffffffffff167f8be0079c531659141344cd1fd0a4f28419497f9722a3daafe3b4186f6b6457e060405160405180910390a35050565b600033905090565b600080fd5b600073ffffffffffffffffffffffffffffffffffffffff82169050919050565b6000610aff82610ad4565b9050919050565b610b0f81610af4565b8114610b1a57600080fd5b50565b600081359050610b2c81610b06565b92915050565b600060208284031215610b4857610b47610acf565b5b6000610b5684828501610b1d565b91505092915050565b6000819050919050565b610b7281610b5f565b82525050565b6000602082019050610b8d6000830184610b69565b92915050565b610b9c81610b5f565b8114610ba757600080fd5b50565b600081359050610bb981610b93565b92915050565b600060208284031215610bd557610bd4610acf565b5b6000610be384828501610baa565b91505092915050565b600080600080600060a08688031215610c0857610c07610acf565b5b6000610c1688828901610baa565b9550506020610c2788828901610baa565b9450506040610c3888828901610baa565b9350506060610c4988828901610baa565b9250506080610c5a88828901610baa565b9150509295509295909350565b600060e082019050610c7c600083018a610b69565b610c896020830189610b69565b610c966040830188610b69565b610ca36060830187610b69565b610cb06080830186610b69565b610cbd60a0830185610b69565b610cca60c0830184610b69565b98975050505050505050565b6000610ce182610ad4565b9050919050565b610cf181610cd6565b82525050565b6000602082019050610d0c6000830184610ce8565b92915050565b60008060408385031215610d2957610d28610acf565b5b6000610d3785828601610b1d565b9250506020610d4885828601610baa565b9150509250929050565b610d5b81610cd6565b8114610d6657600080fd5b50565b600081359050610d7881610d52565b92915050565b600060208284031215610d9457610d93610acf565b5b6000610da284828501610d69565b91505092915050565b600082825260208201905092915050565b7f526f756e64206e6f742065786973747300000000000000000000000000000000600082015250565b6000610df2601083610dab565b9150610dfd82610dbc565b602082019050919050565b60006020820190508181036000830152610e2181610de5565b9050919050565b7f4e487b7100000000000000000000000000000000000000000000000000000000600052601160045260246000fd5b6000610e6282610b5f565b91507fffffffffffffffffffffffffffffffffffffffffffffffffffffffffffffffff8203610e9457610e93610e28565b5b600182019050919050565b6000610eaa82610b5f565b9150610eb583610b5f565b9250828203905081811115610ecd57610ecc610e28565b5b92915050565b7f546f6b656e206e6f74206f70656e20666f722073616c65207965740000000000600082015250565b6000610f09601b83610dab565b9150610f1482610ed3565b602082019050919050565b60006020820190508181036000830152610f3881610efc565b9050919050565b7f4e6f7420656e6f756768206d6f6e65792073656e740000000000000000000000600082015250565b6000610f75601583610dab565b9150610f8082610f3f565b602082019050919050565b60006020820190508181036000830152610fa481610f68565b9050919050565b7f4e487b7100000000000000000000000000000000000000000000000000000000600052601260045260246000fd5b6000610fe582610b5f565b9150610ff083610b5f565b92508261100057610fff610fab565b5b828204905092915050565b600061101682610b5f565b915061102183610b5f565b925082820261102f81610b5f565b9150828204841483151761104657611045610e28565b5b5092915050565b60006060820190506110626000830186610ce8565b61106f6020830185610ce8565b61107c6040830184610b69565b949350505050565b60008115159050919050565b61109981611084565b81146110a457600080fd5b50565b6000815190506110b681611090565b92915050565b6000602082840312156110d2576110d1610acf565b5b60006110e0848285016110a7565b91505092915050565b60006080820190506110fe6000830187610ce8565b61110b6020830186610b69565b6111186040830185610b69565b6111256060830184610b69565b95945050505050565b7f62616c616e6365206e6f7420656e6f7567680000000000000000000000000000600082015250565b6000611164601283610dab565b915061116f8261112e565b602082019050919050565b6000602082019050818103600083015261119381611157565b9050919050565b7f4f776e61626c653a206e6577206f776e657220697320746865207a65726f206160008201527f6464726573730000000000000000000000000000000000000000000000000000602082015250565b60006111f6602683610dab565b91506112018261119a565b604082019050919050565b60006020820190508181036000830152611225816111e9565b9050919050565b7f4f776e61626c653a2063616c6c6572206973206e6f7420746865206f776e6572600082015250565b6000611262602083610dab565b915061126d8261122c565b602082019050919050565b6000602082019050818103600083015261129181611255565b905091905056fea264697066735822122058d4d3b56b30c039c786063fb0a5f14522fcfaf88bb7b6f3cc7d0dfc5ff825f264736f6c63430008110033",
  "immutableReferences": {},
  "source": "//SPDX-License-Identifier: MIT\npragma solidity ^0.8.16;\n\nimport \"@openzeppelin/contracts/access/Ownable.sol\";\n\nimport \"@ganache/console.log/console.sol\";\n\nabstract contract IERC20 {\n    function transferFrom(\n        address _from,\n        address to,\n        uint256 amount\n    ) public virtual returns (bool);\n}\n\ncontract TokenSale is Ownable {\n    mapping(uint256 => Round) public rounds;\n    IERC20 token;\n    uint256 index;\n    uint256 public activeRound;\n    address tokenOwner;\n\n    struct Round {\n        uint256 index;\n        uint256 tokenPriceInWei;\n        uint256 quantityToken;\n        uint256 quantityBuyer;\n        uint256 startDate;\n        uint256 endDate;\n        uint256 quantitySold;\n    }\n\n    event PurchaseToken(\n        address _to,\n        uint256 _amount,\n        uint256 _tokenPriceInWei,\n        uint256 _timestamp\n    );\n\n    constructor(address _token) {\n        token = IERC20(_token);\n        tokenOwner = msg.sender;\n    }\n\n    function createRound(\n        uint256 _tokenPriceInWei,\n        uint256 _quantityToken,\n        uint256 _quantityBuyer,\n        uint256 _startDate,\n        uint256 _endDate\n    ) public onlyOwner {\n        index++;\n        Round memory round = Round({\n            index: index,\n            tokenPriceInWei: _tokenPriceInWei,\n            quantityToken: _quantityToken,\n            quantityBuyer: _quantityBuyer,\n            startDate: _startDate,\n            endDate: _endDate,\n            quantitySold: 0\n        });\n        rounds[index] = round;\n    }\n\n    function setRoundActive(uint256 _index) public onlyOwner {\n        require(rounds[_index].index > 0, \"Round not exists\");\n        activeRound = _index;\n    }\n\n    function getQuantityTokenRemain() public view returns (uint256) {\n        Round memory round = rounds[activeRound];\n        return round.quantityToken - round.quantitySold;\n    }\n\n    function purchase() public payable {\n        Round memory round = rounds[activeRound];\n        uint256 current = uint256(block.timestamp);\n        require(\n            round.startDate <= current && round.endDate >= current,\n            \"Token not open for sale yet\"\n        );\n        require(msg.value >= round.tokenPriceInWei, \"Not enough money sent\");\n        uint256 tokensToTransfer = msg.value / round.tokenPriceInWei;\n        uint256 remainder = msg.value -\n            tokensToTransfer *\n            round.tokenPriceInWei;\n        token.transferFrom(tokenOwner, msg.sender, tokensToTransfer);\n        payable(msg.sender).transfer(remainder);\n        emit PurchaseToken(\n            msg.sender,\n            msg.value,\n            round.tokenPriceInWei,\n            block.timestamp\n        );\n        payable(this).transfer(tokensToTransfer * round.tokenPriceInWei);\n    }\n\n    fallback() external payable {\n        payable(this).transfer(msg.value);\n    }\n\n    receive() external payable {\n        payable(this).transfer(msg.value);\n    }\n\n    function withdrawMoney(address payable _to, uint256 _amount)\n        public\n        onlyOwner\n    {\n        uint256 balance = address(this).balance;\n        require(_amount <= balance, \"balance not enough\");\n        balance -= _amount;\n        _to.transfer(_amount);\n    }\n\n    function withdrawAllMoney(address payable _to) public onlyOwner {\n        _to.transfer(address(this).balance);\n    }\n}\n",
  "sourcePath": "/Users/Dondd/Projects/Research/ethereum/sauron-token/contracts/TokenSale.sol",
  "compiler": {
    "name": "solc",
    "version": "0.8.17+commit.8df45f5f.Emscripten.clang"
  },
  "schemaVersion": "3.4.11",
  "updatedAt": "2022-12-15T16:01:53.287Z",
  "devdoc": {
    "kind": "dev",
    "methods": {
      "owner()": {
        "details": "Returns the address of the current owner."
      },
      "renounceOwnership()": {
        "details": "Leaves the contract without owner. It will not be possible to call `onlyOwner` functions anymore. Can only be called by the current owner. NOTE: Renouncing ownership will leave the contract without an owner, thereby removing any functionality that is only available to the owner."
      },
      "transferOwnership(address)": {
        "details": "Transfers ownership of the contract to a new account (`newOwner`). Can only be called by the current owner."
      }
    },
    "version": 1
  },
  "userdoc": {
    "kind": "user",
    "methods": {},
    "version": 1
  }
}